{
  "contractName": "LPR",
  "abi": [
    {
      "inputs": [
        {
          "internalType": "uint256",
          "name": "",
          "type": "uint256"
        }
      ],
      "name": "logs",
      "outputs": [
        {
          "internalType": "string",
          "name": "plate",
          "type": "string"
        },
        {
          "internalType": "string",
          "name": "name",
          "type": "string"
        },
        {
          "internalType": "string",
          "name": "vehicleType",
          "type": "string"
        },
        {
          "internalType": "uint256",
          "name": "timestamp",
          "type": "uint256"
        }
      ],
      "stateMutability": "view",
      "type": "function"
    },
    {
      "inputs": [
        {
          "internalType": "string",
          "name": "_plate",
          "type": "string"
        },
        {
          "internalType": "string",
          "name": "_name",
          "type": "string"
        },
        {
          "internalType": "string",
          "name": "_vehicleType",
          "type": "string"
        }
      ],
      "name": "addLog",
      "outputs": [],
      "stateMutability": "nonpayable",
      "type": "function"
    },
    {
      "inputs": [
        {
          "internalType": "uint256",
          "name": "index",
          "type": "uint256"
        }
      ],
      "name": "getLog",
      "outputs": [
        {
          "internalType": "string",
          "name": "",
          "type": "string"
        },
        {
          "internalType": "string",
          "name": "",
          "type": "string"
        },
        {
          "internalType": "string",
          "name": "",
          "type": "string"
        },
        {
          "internalType": "uint256",
          "name": "",
          "type": "uint256"
        }
      ],
      "stateMutability": "view",
      "type": "function"
    },
    {
      "inputs": [],
      "name": "totalLogs",
      "outputs": [
        {
          "internalType": "uint256",
          "name": "",
          "type": "uint256"
        }
      ],
      "stateMutability": "view",
      "type": "function"
    }
  ],
  "bytecode": "0x608060405234801561000f575f80fd5b50610cbc8061001d5f395ff3fe608060405234801561000f575f80fd5b506004361061004a575f3560e01c80631b3f14e51461004e5780633206b2c61461006a578063e4ce06621461009d578063e79899bd146100bb575b5f80fd5b6100686004803603810190610063919061072c565b6100ee565b005b610084600480360381019061007f9190610803565b610187565b60405161009494939291906108b7565b60405180910390f35b6100a5610408565b6040516100b2919061090f565b60405180910390f35b6100d560048036038101906100d09190610803565b610413565b6040516100e594939291906108b7565b60405180910390f35b5f604051806080016040528085815260200184815260200183815260200142815250908060018154018082558091505060019003905f5260205f2090600402015f909190919091505f820151815f0190816101499190610b22565b50602082015181600101908161015f9190610b22565b5060408201518160020190816101759190610b22565b50606082015181600301555050505050565b60608060605f808054905085106101d3576040517f08c379a00000000000000000000000000000000000000000000000000000000081526004016101ca90610c3b565b60405180910390fd5b5f85815481106101e6576101e5610c59565b5b905f5260205f2090600402015f015f868154811061020757610206610c59565b5b905f5260205f2090600402016001015f878154811061022957610228610c59565b5b905f5260205f2090600402016002015f888154811061024b5761024a610c59565b5b905f5260205f2090600402016003015483805461026790610955565b80601f016020809104026020016040519081016040528092919081815260200182805461029390610955565b80156102de5780601f106102b5576101008083540402835291602001916102de565b820191905f5260205f20905b8154815290600101906020018083116102c157829003601f168201915b505050505093508280546102f190610955565b80601f016020809104026020016040519081016040528092919081815260200182805461031d90610955565b80156103685780601f1061033f57610100808354040283529160200191610368565b820191905f5260205f20905b81548152906001019060200180831161034b57829003601f168201915b5050505050925081805461037b90610955565b80601f01602080910402602001604051908101604052809291908181526020018280546103a790610955565b80156103f25780601f106103c9576101008083540402835291602001916103f2565b820191905f5260205f20905b8154815290600101906020018083116103d557829003601f168201915b5050505050915093509350935093509193509193565b5f8080549050905090565b5f8181548110610421575f80fd5b905f5260205f2090600402015f91509050805f01805461044090610955565b80601f016020809104026020016040519081016040528092919081815260200182805461046c90610955565b80156104b75780601f1061048e576101008083540402835291602001916104b7565b820191905f5260205f20905b81548152906001019060200180831161049a57829003601f168201915b5050505050908060010180546104cc90610955565b80601f01602080910402602001604051908101604052809291908181526020018280546104f890610955565b80156105435780601f1061051a57610100808354040283529160200191610543565b820191905f5260205f20905b81548152906001019060200180831161052657829003601f168201915b50505050509080600201805461055890610955565b80601f016020809104026020016040519081016040528092919081815260200182805461058490610955565b80156105cf5780601f106105a6576101008083540402835291602001916105cf565b820191905f5260205f20905b8154815290600101906020018083116105b257829003601f168201915b5050505050908060030154905084565b5f604051905090565b5f80fd5b5f80fd5b5f80fd5b5f80fd5b5f601f19601f8301169050919050565b7f4e487b71000000000000000000000000000000000000000000000000000000005f52604160045260245ffd5b61063e826105f8565b810181811067ffffffffffffffff8211171561065d5761065c610608565b5b80604052505050565b5f61066f6105df565b905061067b8282610635565b919050565b5f67ffffffffffffffff82111561069a57610699610608565b5b6106a3826105f8565b9050602081019050919050565b828183375f83830152505050565b5f6106d06106cb84610680565b610666565b9050828152602081018484840111156106ec576106eb6105f4565b5b6106f78482856106b0565b509392505050565b5f82601f830112610713576107126105f0565b5b81356107238482602086016106be565b91505092915050565b5f805f60608486031215610743576107426105e8565b5b5f84013567ffffffffffffffff8111156107605761075f6105ec565b5b61076c868287016106ff565b935050602084013567ffffffffffffffff81111561078d5761078c6105ec565b5b610799868287016106ff565b925050604084013567ffffffffffffffff8111156107ba576107b96105ec565b5b6107c6868287016106ff565b9150509250925092565b5f819050919050565b6107e2816107d0565b81146107ec575f80fd5b50565b5f813590506107fd816107d9565b92915050565b5f60208284031215610818576108176105e8565b5b5f610825848285016107ef565b91505092915050565b5f81519050919050565b5f82825260208201905092915050565b5f5b8381101561086557808201518184015260208101905061084a565b5f8484015250505050565b5f61087a8261082e565b6108848185610838565b9350610894818560208601610848565b61089d816105f8565b840191505092915050565b6108b1816107d0565b82525050565b5f6080820190508181035f8301526108cf8187610870565b905081810360208301526108e38186610870565b905081810360408301526108f78185610870565b905061090660608301846108a8565b95945050505050565b5f6020820190506109225f8301846108a8565b92915050565b7f4e487b71000000000000000000000000000000000000000000000000000000005f52602260045260245ffd5b5f600282049050600182168061096c57607f821691505b60208210810361097f5761097e610928565b5b50919050565b5f819050815f5260205f209050919050565b5f6020601f8301049050919050565b5f82821b905092915050565b5f600883026109e17fffffffffffffffffffffffffffffffffffffffffffffffffffffffffffffffff826109a6565b6109eb86836109a6565b95508019841693508086168417925050509392505050565b5f819050919050565b5f610a26610a21610a1c846107d0565b610a03565b6107d0565b9050919050565b5f819050919050565b610a3f83610a0c565b610a53610a4b82610a2d565b8484546109b2565b825550505050565b5f90565b610a67610a5b565b610a72818484610a36565b505050565b5b81811015610a9557610a8a5f82610a5f565b600181019050610a78565b5050565b601f821115610ada57610aab81610985565b610ab484610997565b81016020851015610ac3578190505b610ad7610acf85610997565b830182610a77565b50505b505050565b5f82821c905092915050565b5f610afa5f1984600802610adf565b1980831691505092915050565b5f610b128383610aeb565b9150826002028217905092915050565b610b2b8261082e565b67ffffffffffffffff811115610b4457610b43610608565b5b610b4e8254610955565b610b59828285610a99565b5f60209050601f831160018114610b8a575f8415610b78578287015190505b610b828582610b07565b865550610be9565b601f198416610b9886610985565b5f5b82811015610bbf57848901518255600182019150602085019450602081019050610b9a565b86831015610bdc5784890151610bd8601f891682610aeb565b8355505b6001600288020188555050505b505050505050565b7f496e76616c6964206c6f6720696e6465780000000000000000000000000000005f82015250565b5f610c25601183610838565b9150610c3082610bf1565b602082019050919050565b5f6020820190508181035f830152610c5281610c19565b9050919050565b7f4e487b71000000000000000000000000000000000000000000000000000000005f52603260045260245ffdfea2646970667358221220ff0b3f9b4dded50394cd79d0a72a397e8b90f3a4d28ce610826a7e5b9362661664736f6c63430008150033",
  "immutableReferences": {},
  "source": "// SPDX-License-Identifier: MIT\r\npragma solidity ^0.8.21;\r\n\r\ncontract LPR {\r\n    struct Log {\r\n        string plate;\r\n        string name;\r\n        string vehicleType;\r\n        uint256 timestamp;\r\n    }\r\n\r\n    Log[] public logs;\r\n\r\n    function addLog(string memory _plate, string memory _name, string memory _vehicleType) public {\r\n        logs.push(Log(_plate, _name, _vehicleType, block.timestamp));\r\n    }\r\n\r\n    function getLog(uint256 index) public view returns (string memory, string memory, string memory, uint256) {\r\n        require(index < logs.length, \"Invalid log index\");\r\n        return (logs[index].plate, logs[index].name, logs[index].vehicleType, logs[index].timestamp);\r\n    }\r\n\r\n    function totalLogs() public view returns (uint256) {\r\n        return logs.length;\r\n    }\r\n}\r\n",
  "sourcePath": "C:\\xampp\\htdocs\\V-Chain\\contracts\\VehicleLog.sol",
  "compiler": {
    "name": "solc",
    "version": "0.8.21+commit.d9974bed.Emscripten.clang"
  },
  "schemaVersion": "3.4.16",
  "updatedAt": "2025-03-19T09:23:58.154Z",
  "devdoc": {
    "kind": "dev",
    "methods": {},
    "version": 1
  },
  "userdoc": {
    "kind": "user",
    "methods": {},
    "version": 1
  }
}