{
  "contractName": "VehicleLog",
  "abi": [
    {
      "anonymous": false,
      "inputs": [
        {
          "indexed": false,
          "name": "plateNumber",
          "type": "string"
        },
        {
          "indexed": false,
          "name": "ownerName",
          "type": "string"
        },
        {
          "indexed": false,
          "name": "vehicleType",
          "type": "string"
        },
        {
          "indexed": false,
          "name": "entryTime",
          "type": "uint256"
        }
      ],
      "name": "VehicleEntered",
      "type": "event"
    },
    {
      "anonymous": false,
      "inputs": [
        {
          "indexed": false,
          "name": "plateNumber",
          "type": "string"
        },
        {
          "indexed": false,
          "name": "exitTime",
          "type": "uint256"
        }
      ],
      "name": "VehicleExited",
      "type": "event"
    },
    {
      "constant": false,
      "inputs": [
        {
          "name": "_plateNumber",
          "type": "string"
        },
        {
          "name": "_ownerName",
          "type": "string"
        },
        {
          "name": "_vehicleType",
          "type": "string"
        }
      ],
      "name": "logEntry",
      "outputs": [],
      "payable": false,
      "stateMutability": "nonpayable",
      "type": "function"
    },
    {
      "constant": false,
      "inputs": [
        {
          "name": "_plateNumber",
          "type": "string"
        }
      ],
      "name": "logExit",
      "outputs": [],
      "payable": false,
      "stateMutability": "nonpayable",
      "type": "function"
    },
    {
      "constant": true,
      "inputs": [
        {
          "name": "_plateNumber",
          "type": "string"
        }
      ],
      "name": "getVehicleLog",
      "outputs": [
        {
          "name": "",
          "type": "string"
        },
        {
          "name": "",
          "type": "string"
        },
        {
          "name": "",
          "type": "string"
        },
        {
          "name": "",
          "type": "uint256"
        },
        {
          "name": "",
          "type": "uint256"
        }
      ],
      "payable": false,
      "stateMutability": "view",
      "type": "function"
    }
  ],
  "bytecode": "0x608060405234801561001057600080fd5b50610e2b806100206000396000f3fe608060405260043610610051576000357c01000000000000000000000000000000000000000000000000000000009004806345f847a714610056578063d37661581461024c578063f635058614610314575b600080fd5b34801561006257600080fd5b5061024a6004803603606081101561007957600080fd5b810190808035906020019064010000000081111561009657600080fd5b8201836020820111156100a857600080fd5b803590602001918460018302840111640100000000831117156100ca57600080fd5b91908080601f016020809104026020016040519081016040528093929190818152602001838380828437600081840152601f19601f8201169050808301925050505050505091929192908035906020019064010000000081111561012d57600080fd5b82018360208201111561013f57600080fd5b8035906020019184600183028401116401000000008311171561016157600080fd5b91908080601f016020809104026020016040519081016040528093929190818152602001838380828437600081840152601f19601f820116905080830192505050505050509192919290803590602001906401000000008111156101c457600080fd5b8201836020820111156101d657600080fd5b803590602001918460018302840111640100000000831117156101f857600080fd5b91908080601f016020809104026020016040519081016040528093929190818152602001838380828437600081840152601f19601f82011690508083019250505050505050919291929050505061053b565b005b34801561025857600080fd5b506103126004803603602081101561026f57600080fd5b810190808035906020019064010000000081111561028c57600080fd5b82018360208201111561029e57600080fd5b803590602001918460018302840111640100000000831117156102c057600080fd5b91908080601f016020809104026020016040519081016040528093929190818152602001838380828437600081840152601f19601f820116905080830192505050505050509192919290505050610816565b005b34801561032057600080fd5b506103da6004803603602081101561033757600080fd5b810190808035906020019064010000000081111561035457600080fd5b82018360208201111561036657600080fd5b8035906020019184600183028401116401000000008311171561038857600080fd5b91908080601f016020809104026020016040519081016040528093929190818152602001838380828437600081840152601f19601f820116905080830192505050505050509192919290505050610a13565b60405180806020018060200180602001868152602001858152602001848103845289818151815260200191508051906020019080838360005b8381101561042e578082015181840152602081019050610413565b50505050905090810190601f16801561045b5780820380516001836020036101000a031916815260200191505b50848103835288818151815260200191508051906020019080838360005b83811015610494578082015181840152602081019050610479565b50505050905090810190601f1680156104c15780820380516001836020036101000a031916815260200191505b50848103825287818151815260200191508051906020019080838360005b838110156104fa5780820151818401526020810190506104df565b50505050905090810190601f1680156105275780820380516001836020036101000a031916815260200191505b509850505050505050505060405180910390f35b600061054684610cfe565b905060008060008381526020019081526020016000206000018054600181600116156101000203166002900490501415156105e9576040517f08c379a00000000000000000000000000000000000000000000000000000000081526004018080602001828103825260188152602001807f56656869636c6520616c726561647920656e74657265642e000000000000000081525060200191505060405180910390fd5b60a06040519081016040528085815260200184815260200183815260200142815260200160008152506000808381526020019081526020016000206000820151816000019080519060200190610640929190610d2a565b50602082015181600101908051906020019061065d929190610d2a565b50604082015181600201908051906020019061067a929190610d2a565b5060608201518160030155608082015181600401559050507f0198ccf713c50d83892b44e0a136b4234bdbc67c3d6d6d69e880408d5b8f7b668484844260405180806020018060200180602001858152602001848103845288818151815260200191508051906020019080838360005b838110156107055780820151818401526020810190506106ea565b50505050905090810190601f1680156107325780820380516001836020036101000a031916815260200191505b50848103835287818151815260200191508051906020019080838360005b8381101561076b578082015181840152602081019050610750565b50505050905090810190601f1680156107985780820380516001836020036101000a031916815260200191505b50848103825286818151815260200191508051906020019080838360005b838110156107d15780820151818401526020810190506107b6565b50505050905090810190601f1680156107fe5780820380516001836020036101000a031916815260200191505b5097505050505050505060405180910390a150505050565b600061082182610cfe565b905060008060008381526020019081526020016000206000018054600181600116156101000203166002900490501115156108c4576040517f08c379a00000000000000000000000000000000000000000000000000000000081526004018080602001828103825260128152602001807f56656869636c65206e6f7420666f756e642e000000000000000000000000000081525060200191505060405180910390fd5b600080600083815260200190815260200160002060040154141515610951576040517f08c379a00000000000000000000000000000000000000000000000000000000081526004018080602001828103825260178152602001807f56656869636c6520616c7265616479206578697465642e00000000000000000081525060200191505060405180910390fd5b42600080838152602001908152602001600020600401819055507fa32d29f7503321a42a06a7af5f2953ce7c0d06b3eb3f65990df9294a503c07c482426040518080602001838152602001828103825284818151815260200191508051906020019080838360005b838110156109d45780820151818401526020810190506109b9565b50505050905090810190601f168015610a015780820380516001836020036101000a031916815260200191505b50935050505060405180910390a15050565b60608060606000806000610a2687610cfe565b9050610a30610daa565b60008083815260200190815260200160002060a06040519081016040529081600082018054600181600116156101000203166002900480601f016020809104026020016040519081016040528092919081815260200182805460018160011615610100020316600290048015610ae75780601f10610abc57610100808354040283529160200191610ae7565b820191906000526020600020905b815481529060010190602001808311610aca57829003601f168201915b50505050508152602001600182018054600181600116156101000203166002900480601f016020809104026020016040519081016040528092919081815260200182805460018160011615610100020316600290048015610b895780601f10610b5e57610100808354040283529160200191610b89565b820191906000526020600020905b815481529060010190602001808311610b6c57829003601f168201915b50505050508152602001600282018054600181600116156101000203166002900480601f016020809104026020016040519081016040528092919081815260200182805460018160011615610100020316600290048015610c2b5780601f10610c0057610100808354040283529160200191610c2b565b820191906000526020600020905b815481529060010190602001808311610c0e57829003601f168201915b505050505081526020016003820154815260200160048201548152505090506000816000015151111515610cc7576040517f08c379a00000000000000000000000000000000000000000000000000000000081526004018080602001828103825260128152602001807f56656869636c65206e6f7420666f756e642e000000000000000000000000000081525060200191505060405180910390fd5b8060000151816020015182604001518360600151846080015184945083935082925096509650965096509650505091939590929450565b60006060829050600081511415610d1c576000600102915050610d25565b60208301519150505b919050565b828054600181600116156101000203166002900490600052602060002090601f016020900481019282601f10610d6b57805160ff1916838001178555610d99565b82800160010185558215610d99579182015b82811115610d98578251825591602001919060010190610d7d565b5b509050610da69190610dda565b5090565b60a06040519081016040528060608152602001606081526020016060815260200160008152602001600081525090565b610dfc91905b80821115610df8576000816000905550600101610de0565b5090565b9056fea165627a7a723058203bdee5b10e1915749901ff8f871dedfe031371f6894c48ac09fbebd14c20c5680029",
  "source": "// SPDX-License-Identifier: MIT\r\npragma solidity >=0.4.22 <0.9.0;\r\n\r\ncontract VehicleLog {\r\n    struct VehicleEntry {\r\n        string plateNumber;\r\n        string ownerName;\r\n        string vehicleType;\r\n        uint256 entryTime;\r\n        uint256 exitTime;\r\n    }\r\n\r\n    mapping(bytes32 => VehicleEntry) private vehicleLogs;\r\n\r\n    event VehicleEntered(string plateNumber, string ownerName, string vehicleType, uint256 entryTime);\r\n    event VehicleExited(string plateNumber, uint256 exitTime);\r\n\r\n    // Helper function to convert string to bytes32\r\n    function toBytes32(string memory source) internal pure returns (bytes32 result) {\r\n        bytes memory temp = bytes(source);\r\n        if (temp.length == 0) {\r\n            return 0x0;\r\n        }\r\n        assembly {\r\n            result := mload(add(source, 32))\r\n        }\r\n    }\r\n\r\n    // Log vehicle entry\r\n    function logEntry(string memory _plateNumber, string memory _ownerName, string memory _vehicleType) public {\r\n        bytes32 plateHash = toBytes32(_plateNumber);\r\n        \r\n        require(bytes(vehicleLogs[plateHash].plateNumber).length == 0, \"Vehicle already entered.\");\r\n\r\n        vehicleLogs[plateHash] = VehicleEntry({\r\n            plateNumber: _plateNumber,\r\n            ownerName: _ownerName,\r\n            vehicleType: _vehicleType,\r\n            entryTime: block.timestamp,\r\n            exitTime: 0\r\n        });\r\n\r\n        emit VehicleEntered(_plateNumber, _ownerName, _vehicleType, block.timestamp);\r\n    }\r\n\r\n    // Log vehicle exit\r\n    function logExit(string memory _plateNumber) public {\r\n        bytes32 plateHash = toBytes32(_plateNumber);\r\n        \r\n        require(bytes(vehicleLogs[plateHash].plateNumber).length > 0, \"Vehicle not found.\");\r\n        require(vehicleLogs[plateHash].exitTime == 0, \"Vehicle already exited.\");\r\n\r\n        vehicleLogs[plateHash].exitTime = block.timestamp;\r\n\r\n        emit VehicleExited(_plateNumber, block.timestamp);\r\n    }\r\n\r\n    // Get vehicle log by plate number\r\n    function getVehicleLog(string memory _plateNumber) public view returns (\r\n        string memory, string memory, string memory, uint256, uint256\r\n    ) {\r\n        bytes32 plateHash = toBytes32(_plateNumber);\r\n        VehicleEntry memory log = vehicleLogs[plateHash];\r\n        \r\n        require(bytes(log.plateNumber).length > 0, \"Vehicle not found.\");\r\n        \r\n        return (log.plateNumber, log.ownerName, log.vehicleType, log.entryTime, log.exitTime);\r\n    }\r\n}\r\n",
  "sourcePath": "C:\\xampp\\htdocs\\V-Chain\\contracts\\VehicleLog.sol",
  "compiler": {
    "name": "solc",
    "version": "0.5.1+commit.c8a2cb62.Emscripten.clang"
  },
  "schemaVersion": "3.4.16",
  "updatedAt": "2025-03-19T16:50:35.472Z",
  "networkType": "ethereum",
  "devdoc": {
    "methods": {}
  },
  "userdoc": {
    "methods": {}
  }
}